:020000040800F2
:1000000000000220090900085B09000869090008CE
:100010006F090008750900087B090008000000004E
:10002000000000000000000000000000810900083E
:100030008F090008000000009D090008AB090008B6
:100040005909000859090008590900085909000808
:1000500059090008590900085909000859090008F8
:10006000590900085909000859090008ED06000857
:1000700059090008590900085909000859090008D8
:1000800059090008590900085909000859090008C8
:1000900059090008590900085909000859090008B8
:1000A00059090008590900085909000859090008A8
:1000B0005909000859090008590900085909000898
:1000C0005909000859090008590900085909000888
:1000D0005909000859090008590900085909000878
:1000E0005909000859090008590900085909000868
:1000F000590900085909000859090008E1060008D3
:10010000590900085909000859090008F9060008AA
:100110005909000859090008590900085909000837
:100120005909000859090008590900085909000827
:100130005909000859090008590900085909000817
:100140005909000859090008590900085909000807
:1001500059090008590900085909000859090008F7
:1001600059090008590900085909000859090008E7
:1001700059090008590900085909000859090008D7
:080180005909000859090008A3
:1001880010B5054C237833B9044B13B10448AFF3C9
:1001980000800123237010BD100000200000000023
:1001A800640B000808B5034B1BB103490348AFF3C0
:1001B800008008BD0000000014000020640B000847
:1001C80080B485B000AF786039600023FB607B683D
:1001D8001B68FB60FA68254B1340FB603B681A6894
:1001E8003B68DB681A433B685B691A433B689B6959
:1001F8001A433B68DB691A433B681B6A1A433B682E
:100208005B6A1A433B689B6A1A433B685B6B1A43F9
:100218003B689B6B1343FA681343FB607B68FA687F
:100228001A607B685B69FB60FB6823F00703FB606F
:100238003B68DA6A3B681B6B1343FA681343FB603D
:100248007B68FA685A613B681A697B685A603B6840
:100258005A687B689A603B689A687B68DA6000BF76
:100268001437BD465DF8047B704700BF3F801CF023
:1002780080B483B000AF78600B46FB70FB78002B2E
:1002880006D07B681B6843F001027B681A6005E0B2
:100298007B681B6823F001027B681A6000BF0C377B
:1002A800BD465DF8047B704780B485B000AF7860C8
:1002B8000023FB737B681B6803F00103002B02D04B
:1002C8000123FB7301E00023FB73FB7B1846143703
:1002D800BD465DF8047B704780B487B000AF786096
:1002E80039600023FB750023FB607B68154A934245
:1002F80002D8154B3B6101E0144B3B613B6803F0AE
:100308000053002B03D03B695B68FB6002E03B694C
:100318001B68FB60FB6823F0F02323F08213FB606B
:10032800FA683B681340002B02D00123FB7501E0FB
:100338000023FB75FB7D18461C37BD465DF8047B22
:10034800704700BF0F640240006002400064024032
:1003580080B485B000AF786039607B68104A9342FA
:1003680002D8104BFB6001E00F4BFB603B6803F0C9
:100378000053002B07D03B6823F0F02323F08213AF
:10038800FA68D36006E03B6823F0F02323F0821379
:10039800FA68936000BF1437BD465DF8047B704768
:1003A8000F640240006002400064024080B487B0DD
:1003B80000AF7860396000237B6100233B61002334
:1003C800FB6000237B6176E001227B6902FA03F37C
:1003D8003B613B681A683B691340FB60FA683B69FC
:1003E8009A4265D17B681A687B695B00032101FA30
:1003F80003F3DB431A407B681A607B681A683B6822
:100408001B7919467B695B0001FA03F31A437B6881
:100418001A603B681B79012B03D03B681B79022BC0
:100428002ED17B689A687B695B00032101FA03F38C
:10043800DB431A407B689A607B689A683B685B7903
:1004480019467B695B0001FA03F31A437B689A60DB
:100458007B685A687B699BB2194601238B40DB4352
:100468001A407B685A607B685B683A6892791146E3
:100478007A6992B201FA02F292B21A437B685A6020
:100488007B68DA687B699BB25B00032101FA03F39E
:10049800DB431A407B68DA607B68DA683B68DB79A3
:1004A80019467B695B0001FA03F31A437B68DA603B
:1004B8007B6901337B617B690F2B85D900BF1C37B2
:1004C800BD465DF8047B704780B485B000AF7860A6
:1004D8000B467B800023FB737B681A697B8813407B
:1004E800002B02D00123FB7301E00023FB73FB7B8D
:1004F80018461437BD465DF8047B704780B485B054
:1005080000AF78600B467B800023FB737B685A69D9
:100518007B881340002B02D00123FB7301E00023EA
:10052800FB73FB7B18461437BD465DF8047B7047A8
:1005380080B483B000AF78600B467B807B687A8894
:100548001A8300BF0C37BD465DF8047B704780B442
:1005580083B000AF78600B467B807B687A885A83CB
:1005680000BF0C37BD465DF8047B704780B483B08C
:1005780000AF78600B46FB70FB78002B06D00A4969
:10058800094B1A6B7B6813430B6306E00649064B5D
:100598001A6B7B68DB4313400B6300BF0C37BD4607
:1005A8005DF8047B704700BF0038024080B485B016
:1005B80000AF78600B467B800023FB737B681B8948
:1005C8009AB27B8813409BB2002B02D00123FB73A5
:1005D80001E00023FB73FB7B18461437BD465DF82A
:1005E800047B704780B500AF354B1A68354B1B68E4
:1005F80019461046FFF770FE0346002B5ED0324BBB
:100608001B68002B4CD000BF2D4B1B681846FFF70A
:100618004BFE0346002BF7D1294B1A68294B1B6860
:1006280019461046FFF794FE284B1B681A46284BBC
:100638009A60254B1B684FF6FF72934228BF1346FA
:10064800234A13611E4B1B6821491846FFF7B8FD62
:100658001B4B1B6801211846FFF70AFE1B4B1A6843
:10066800194B1B68B3F5803F03D2174B1B685B001F
:1006780000E0184B1344154A1360134B1A68124BC9
:100688001B684FF6FF718B4228BF0B46D31A0E4AE0
:1006980013600B4B1B6801211846FFF7E9FD0DE0BD
:1006A800074B1B6800211846FFF7E2FD044B1A6848
:1006B800044B1B6819461046FFF74AFE00BF80BD71
:1006C800080000200C00002000000020300000205E
:1006D80070000020FEFF010080B500AFFFF782FF29
:1006E80000BF80BD80B500AFFFF77CFF00BF80BDB5
:1006F80080B500AF02210548FFF758FF0346002BDD
:1007080001D0034B1B6800BF80BD00BF003C004008
:100718000400002080B483B000AF786000BF7B681D
:100728005A1E7A60002BFAD100BF0C37BD465DF81F
:10073800047B704780B582B000AF01210120FFF72C
:1007480015FF01233B6000233B713B46194669486E
:10075800FFF72CFE01210820FFF708FF4FF4704334
:100768003B6001233B7103237B710023BB71002392
:10077800FB713B4619466048FFF718FE01215D48AA
:10078800FFF7A2FE0346002BF8D15C4B1B78042B25
:1007980000F2998001A252F823F000BFB9070008BF
:1007A800570800082F0800087F080008A708000855
:1007B800524B1B780133DAB2504B1A704FF4805108
:1007C8004D48FFF79BFE0346002B04D04FF48051A1
:1007D8004948FFF7BCFE4FF400514748FFF78EFE2B
:1007E8000346002B04D04FF400514348FFF7AFFEF7
:1007F8004FF480414048FFF781FE0346002B04D0A8
:100808004FF480413C48FFF7A2FE4FF400413A48BC
:10081800FFF774FE0346002B59D04FF400413648C9
:10082800FFF795FE53E04FF480513348FFF766FE1B
:100838000346002B04D14FF480512F48FFF778FE70
:100848002E4B1B780133DAB22C4B1A7040E04FF470
:1008580000512948FFF752FE0346002B04D14FF4FC
:1008680000512548FFF764FE244B1B780133DAB2A8
:10087800224B1A702CE04FF480411F48FFF73EFED0
:100888000346002B04D14FF480411B48FFF750FE6C
:100898001A4B1B780133DAB2184B1A7018E04FF470
:1008A80000411548FFF72AFE0346002B04D14FF4F8
:1008B80000411148FFF73CFE104B1B780133DAB2B8
:1008C8000E4B1A7004E00D4B00221A7000E000BFB6
:1008D80003E04FF47A70FFF71DFF01210548FFF789
:1008E800F3FD0346002BF4D041F28830FFF712FFE6
:1008F80044E700BF00000240000C02402C0000202A
:10090800DFF834D0002103E00C4B5B58435004312E
:100918000B480C4B42189A42F6D30B4A02E00023CC
:1009280042F8043B094B9A42F9D300F041F800F031
:10093800F1F8FFF7FFFE704700000220840B000863
:10094800000000201000002010000020AC00002053
:10095800FEE780B400AF00BFBD465DF8047B70477A
:1009680080B400AFFEE780B400AFFEE780B400AF0C
:10097800FEE780B400AFFEE780B400AF00BFBD461D
:100988005DF8047B704780B400AF00BFBD465DF8DA
:10099800047B704780B400AF00BFBD465DF8047BA0
:1009A800704780B400AF00BFBD465DF8047B704758
:1009B80080B500AF164A164BD3F8883043F470035D
:1009C800C2F88830134A134B1B6843F001031360C5
:1009D800104B00229A600F4A0E4B1B6823F0847359
:1009E80023F4803313600B4B0B4A5A60094A094BB6
:1009F8001B6823F480231360064B0022DA6000F0A2
:100A08000DF8034B4FF000629A6000BF80BD00BF35
:100A180000ED00E0003802401030002480B483B0BC
:100A280000AF00237B6000233B60364A354B1B68D0
:100A380043F480331360334B1B6803F400333B608B
:100A48007B6801337B603B68002B03D17B68B3F57F
:100A5800A06FF0D12B4B1B6803F40033002B02D09E
:100A680001233B6001E000233B603B68012B42D13E
:100A7800244A244B1B6C43F080531364224A224BB4
:100A88001B6843F4404313601E4A1E4B9B689360E7
:100A98001C4A1C4B9B6843F400439360194A194B4A
:100AA8009B6843F4A0539360164B184A5A60154A42
:100AB800144B1B6843F08073136000BF114B1B6815
:100AC80003F00073002BF9D0114B40F205621A6055
:100AD8000C4A0C4B9B6823F003039360094A094BAB
:100AE8009B6843F00203936000BF064B9B6803F0CA
:100AF8000C03082BF9D100BF0C37BD465DF8047B09
:100B0800704700BF0038024000700040085440079A
:100B1800003C024070B50D4E0D4CA41BA4100025DE
:100B2800A54209D10B4E0C4C00F018F8A41BA410D8
:100B38000025A54205D170BD56F8253098470135E6
:100B4800EEE756F8253098470135F2E77C0B0008A8
:100B58007C0B00087C0B0008800B0008F8B500BF70
:100B6800F8BC08BC9E467047F8B500BFF8BC08BC86
:040B78009E467047DE
:040B7C00AD010008BF
:040B800089010008DF
:100B8400FFFF000001000000B860024000000028E0
:0400000508000909DD
:00000001FF
