:020000040800F2
:1000000000000220810B0008D30B0008E10B000860
:10001000E70B0008ED0B0008F30B000800000000E0
:10002000000000000000000000000000F90B0008C4
:10003000070C000800000000150C0008230C000845
:10004000D10B0008D10B0008D10B0008D10B000820
:10005000D10B0008D10B0008D10B0008D10B000810
:10006000D10B0008D10B0008D10B0008950900083E
:10007000D10B0008D10B0008D10B0008D10B0008F0
:10008000D10B0008D10B0008D10B0008D10B0008E0
:10009000D10B0008D10B0008D10B0008D10B0008D0
:1000A000D10B0008D10B0008D10B0008D10B0008C0
:1000B000A90A0008D10B0008D10B0008D10B0008D9
:1000C000D10B0008D10B0008D10B0008D10B0008A0
:1000D000D10B0008D10B0008D10B0008D10B000890
:1000E000D10B0008D10B0008D10B0008D10B000880
:1000F000D10B0008D10B0008D10B000889090008BA
:10010000D10B0008D10B0008D10B0008A109000891
:10011000D10B0008D10B0008D10B0008D10B00084F
:10012000D10B0008D10B0008D10B0008D10B00083F
:10013000D10B0008D10B0008D10B0008D10B00082F
:10014000D10B0008D10B0008D10B0008D10B00081F
:10015000D10B0008D10B0008D10B0008D10B00080F
:10016000D10B0008D10B0008D10B0008D10B0008FF
:10017000D10B0008D10B0008D10B0008D10B0008EF
:08018000D10B0008D10B0008AF
:1001880010B5054C237833B9044B13B10448AFF3C9
:1001980000800123237010BD100000200000000023
:1001A800DC0D000808B5034B1BB103490348AFF346
:1001B800008008BD0000000014000020DC0D0008CD
:1001C80080B485B000AF78600023FB730023BB7355
:1001D8000F237B737B68DB78002B39D0274BDB68D8
:1001E800DB431B0ADBB203F00703FB73FB7BC3F1A2
:1001F8000403BB737A7BFB7B42FA03F37B737B6854
:100208005B781A46BB7B02FA03F3FB737B689A7828
:100218007B7B1340DAB2FB7B1343FB73FB7B1B0135
:10022800FB73174A7B681B781344FA7B83F8002317
:10023800134A7B681B785B09DBB218467B681B781E
:1002480003F01F03012101FA03F342F820300FE005
:100258000B497B681B785B09DBB218467B681B7807
:1002680003F01F0301229A4000F1200341F82320E4
:1002780000BF1437BD465DF8047B704700ED00E011
:1002880000E100E080B485B000AF786039600023F9
:10029800FB607B681B68FB60FA68254B1340FB60BA
:1002A8003B681A683B68DB681A433B685B691A431A
:1002B8003B689B691A433B68DB691A433B681B6AC6
:1002C8001A433B685B6A1A433B689B6A1A433B685C
:1002D8005B6B1A433B689B6B1343FA681343FB60E1
:1002E8007B68FA681A607B685B69FB60FB6823F0CF
:1002F8000703FB603B68DA6A3B681B6B1343FA68C9
:100308001343FB607B68FA685A613B681A697B682B
:100318005A603B685A687B689A603B689A687B6851
:10032800DA6000BF1437BD465DF8047B704700BF34
:100338003F801CF080B483B000AF78600B46FB7040
:10034800FB78002B06D07B681B6843F001027B68B2
:100358001A6005E07B681B6823F001027B681A605D
:1003680000BF0C37BD465DF8047B704780B485B08C
:1003780000AF78600023FB737B681B6803F0010300
:10038800002B02D00123FB7301E00023FB73FB7BEE
:1003980018461437BD465DF8047B704780B487B0B3
:1003A80000AF786039600023FB750023FB607B6831
:1003B800154A934202D8154B3B6101E0144B3B614F
:1003C8003B6803F00053002B03D03B695B68FB607C
:1003D80002E03B691B68FB60FB6823F0F02323F015
:1003E8008213FB60FA683B681340002B02D001239C
:1003F800FB7501E00023FB75FB7D18461C37BD46E5
:100408005DF8047B704700BF0F6402400060024043
:100418000064024080B485B000AF786039607B68C2
:10042800104A934202D8104BFB6001E00F4BFB606F
:100438003B6803F00053002B07D03B6823F0F02300
:1004480023F08213FA68D36006E03B6823F0F023B8
:1004580023F08213FA68936000BF1437BD465DF835
:10046800047B70470F640240006002400064024051
:1004780080B487B000AF7860396000237B610023C7
:100488003B610023FB6000237B6176E001227B69EE
:1004980002FA03F33B613B681A683B691340FB604F
:1004A800FA683B699A4265D17B681A687B695B0088
:1004B800032101FA03F3DB431A407B681A607B6867
:1004C8001A683B681B7919467B695B0001FA03F3DC
:1004D8001A437B681A603B681B79012B03D03B6881
:1004E8001B79022B2ED17B689A687B695B000321FC
:1004F80001FA03F3DB431A407B689A607B689A68C9
:100508003B685B7919467B695B0001FA03F31A4380
:100518007B689A607B685A687B699BB2194601239D
:100528008B40DB431A407B685A607B685B683A689B
:10053800927911467A6992B201FA02F292B21A439A
:100548007B685A607B68DA687B699BB25B00032131
:1005580001FA03F3DB431A407B68DA607B68DA68E8
:100568003B68DB7919467B695B0001FA03F31A43A0
:100578007B68DA607B6901337B617B690F2B85D9E6
:1005880000BF1C37BD465DF8047B704780B485B05A
:1005980000AF78600B467B800023FB737B685A6949
:1005A8007B881340002B02D00123FB7301E000235A
:1005B800FB73FB7B18461437BD465DF8047B704718
:1005C80080B483B000AF78600B467B807B687A8804
:1005D8001A8300BF0C37BD465DF8047B704780B4B2
:1005E80083B000AF78600B467B807B687A885A833B
:1005F80000BF0C37BD465DF8047B704780B483B0FC
:1006080000AF78600B46FB70FB78002B06D00A49D8
:10061800094B1A6B7B6813430B6306E00649064BCC
:100628001A6B7B68DB4313400B6300BF0C37BD4676
:100638005DF8047B704700BF0038024080B483B087
:1006480000AF78600B46FB70FB78002B06D00A4998
:10065800094B1A6C7B6813430B6406E00649064B8A
:100668001A6C7B68DB4313400B6400BF0C37BD4634
:100678005DF8047B704700BF0038024080B485B045
:1006880000AF78600B467B800023FB737B681B8977
:100698009AB27B8813409BB2002B02D00123FB73D4
:1006A80001E00023FB73FB7B18461437BD465DF859
:1006B800047B704780B485B000AF78603960002350
:1006C800FB817B681B88FB817B68294A934213D096
:1006D8007B68284A93420FD07B68B3F1804F0BD0D8
:1006E8007B68254A934207D07B68244A934203D00B
:1006F8007B68234A934208D1FB8923F07003FB816E
:100708003B685A88FB891343FB817B681D4A9342E7
:100718000CD07B681C4A934208D0FB8923F44073B1
:10072800FB813B681A89FB891343FB817B68FA8943
:100738001A803B685A687B68DA623B681A887B686B
:100748001A857B680A4A934203D07B68094A934218
:1007580004D13B689B7A9AB27B681A867B6801222F
:100768009A8200BF1437BD465DF8047B704700BF0E
:10077800000001400004014000040040000800405F
:10078800000C0040001000400014004080B483B00A
:1007980000AF78600B46FB70FB78002B08D07B68B5
:1007A8001B889BB243F001039AB27B681A8007E06A
:1007B8007B681B889BB223F001039AB27B681A807E
:1007C80000BF0C37BD465DF8047B704780B483B02A
:1007D80000AF78600B467B8013467B707B78002BDC
:1007E80008D07B689B899AB27B8813439AB27B684E
:1007F8009A8109E07B689B899AB27B88DB439BB22C
:1008080013409AB27B689A8100BF0C37BD465DF8E9
:10081800047B704780B485B000AF78600B467B805E
:100828000023FB730023BB8100237B817B681B8A29
:100838009AB27B881340BB817B689B899AB27B887C
:1008480013407B81BB89002B05D07B89002B02D00C
:100858000123FB7301E00023FB73FB7B184614376D
:10086800BD465DF8047B704780B483B000AF786004
:100878000B467B807B88DB439AB27B681A8200BF79
:100888000C37BD465DF8047B7047000080B500AFAB
:10089800354B1A68354B1B6819461046FFF77EFD25
:1008A8000346002B5ED0324B1B68002B4CD000BF98
:1008B8002D4B1B681846FFF759FD0346002BF7D14F
:1008C800294B1A68294B1B6819461046FFF7A2FDE9
:1008D800284B1B681A46284B9A60254B1B684FF615
:1008E800FF72934228BF1346234A13611E4B1B68AD
:1008F80021491846FFF7C6FC1B4B1B680121184607
:10090800FFF718FD1B4B1A68194B1B68B3F5803F9E
:1009180003D2174B1B685B0000E0184B1344154AC1
:100928001360134B1A68124B1B684FF6FF718B420A
:1009380028BF0B46D31A0E4A13600B4B1B680121C4
:100948001846FFF7F7FC0DE0074B1B680021184617
:10095800FFF7F0FC044B1A68044B1B681946104655
:10096800FFF758FD00BF80BD080000200C000020E4
:10097800000000203000002070000020FEFF010071
:1009880080B500AFFFF782FF00BF80BD80B500AF24
:10099800FFF77CFF00BF80BD80B500AF022105488E
:1009A800FFF76CFE0346002B01D0034B1B6800BF0A
:1009B80080BD00BF003C00400400002080B500AFAF
:1009C80000F088F800F0A4F8334B1B78032B57D8B5
:1009D80001A252F823F000BFF1090008170A000825
:1009E8003D0A0008630A00084FF480512B48FFF7BE
:1009F800CDFD0346002B47D14FF400412748FFF7B0
:100A0800EEFD4FF480512548FFF7DAFD3CE04FF446
:100A180000512248FFF7BAFD0346002B36D14FF4A8
:100A280080511E48FFF7DBFD4FF400511B48FFF7CC
:100A3800C7FD2BE04FF480411848FFF7A7FD034698
:100A4800002B25D14FF400511448FFF7C8FD4FF48F
:100A580080411248FFF7B4FD1AE04FF400410F48F7
:100A6800FFF794FD0346002B14D14FF480410B4847
:100A7800FFF7B5FD4FF400410848FFF7A1FD09E075
:100A8800054B00221A7006E000BF9DE700BF9BE7F8
:100A980000BF99E700BF97E72C000020000C024038
:100AA80080B500AF01214FF08040FFF7B3FE034649
:100AB800002B0AD001214FF08040FFF7D5FE044BF0
:100AC8001B780133DAB2024B1A7000BF80BD00BF39
:100AD8002C00002080B582B000AF01210820FFF76C
:100AE8008DFD4FF470433B6001233B7103237B7101
:100AF8000023BB710023FB713B4619460348FFF7EF
:100B0800B7FC00BF0837BD4680BD00BF000C0240DF
:100B180080B584B000AF1C233B7300237B73012393
:100B2800BB730123FB7307F10C031846FFF748FB5F
:100B380001210120FFF782FD42F2CF033B8042F200
:100B48000F737B6000233B8100237B803B46194663
:100B58004FF08040FFF7AEFD012201214FF08040A9
:100B6800FFF734FE01214FF08040FFF70FFE00BF72
:100B78001037BD4680BD0000DFF834D0002103E007
:100B88000C4B5B58435004310B480C4B42189A42AB
:100B9800F6D30B4A02E0002342F8043B094B9A4281
:100BA800F9D300F041F800F0F1F8FFF707FF7047BC
:100BB80000000220FC0D00080000002010000020AA
:100BC80010000020AC000020FEE780B400AF00BF9A
:100BD800BD465DF8047B704780B400AFFEE780B483
:100BE80000AFFEE780B400AFFEE780B400AFFEE7D9
:100BF80080B400AF00BFBD465DF8047B704780B489
:100C080000AF00BFBD465DF8047B704780B400AFFD
:100C180000BFBD465DF8047B704780B400AF00BFDD
:100C2800BD465DF8047B704780B500AF164A164B89
:100C3800D3F8883043F47003C2F88830134A134B52
:100C48001B6843F001031360104B00229A600F4A9F
:100C58000E4B1B6823F0847323F4803313600B4B13
:100C68000B4A5A60094A094B1B6823F48023136016
:100C7800064B0022DA6000F00DF8034B4FF00062DB
:100C88009A6000BF80BD00BF00ED00E00038024060
:100C98001030002480B483B000AF00237B600023B1
:100CA8003B60364A354B1B6843F480331360334B43
:100CB8001B6803F400333B607B6801337B603B684F
:100CC800002B03D17B68B3F5A06FF0D12B4B1B68C9
:100CD80003F40033002B02D001233B6001E0002322
:100CE8003B603B68012B42D1244A244B1B6C43F0E8
:100CF80080531364224A224B1B6843F44043136019
:100D08001E4A1E4B9B6893601C4A1C4B9B6843F40D
:100D180000439360194A194B9B6843F4A0539360AE
:100D2800164B184A5A60154A144B1B6843F08073D7
:100D3800136000BF114B1B6803F00073002BF9D040
:100D4800114B40F205621A600C4A0C4B9B6823F069
:100D580003039360094A094B9B6843F002039360BD
:100D680000BF064B9B6803F00C03082BF9D100BFAA
:100D78000C37BD465DF8047B704700BF0038024061
:100D88000070004008544007003C024070B50D4E0A
:100D98000D4CA41BA4100025A54209D10B4E0C4CE8
:100DA80000F018F8A41BA4100025A54205D170BDB9
:100DB80056F8253098470135EEE756F8253098471C
:100DC8000135F2E7F40D0008F40D0008F40D0008F1
:100DD800F80D0008F8B500BFF8BC08BC9E4670477F
:0C0DE800F8B500BFF8BC08BC9E46704780
:040DF400AD01000845
:040DF8008901000865
:100DFC00FFFF000001000000B86002400000002866
:0400000508000B8163
:00000001FF
