:020000040800F2
:100000000000022075100008C7100008D510000875
:10001000DB100008E1100008E710000800000000F5
:10002000000000000000000000000000ED100008CB
:10003000FB1000080000000009110008171100085B
:10004000C5100008C5100008C5100008C51000083C
:10005000C5100008C5100008C5100008C51000082C
:10006000C5100008C5100008C5100008950D00084F
:10007000C5100008C5100008C5100008C51000080C
:10008000C5100008C5100008C5100008C5100008FC
:10009000C5100008C5100008C5100008C5100008EC
:1000A000C5100008C5100008C5100008C5100008DC
:1000B000DD0E0008C5100008C5100008C5100008B6
:1000C000C5100008C5100008C5100008C5100008BC
:1000D000C5100008C5100008C5100008C5100008AC
:1000E000C5100008C5100008C5100008C51000089C
:1000F000C5100008C5100008C5100008890D0008CB
:10010000C5100008C5100008C5100008A10D0008A2
:10011000C5100008C5100008C5100008C51000086B
:10012000C5100008C5100008C5100008C51000085B
:10013000C5100008C5100008C5100008C51000084B
:10014000C5100008C5100008C5100008C51000083B
:10015000C5100008C5100008C5100008C51000082B
:10016000C5100008C5100008C5100008C51000081B
:10017000C5100008C5100008C5100008C51000080B
:08018000C5100008C5100008BD
:1001880010B5054C237833B9044B13B10448AFF3C9
:1001980000800123237010BD14000020000000001F
:1001A800D012000808B5034B1BB103490348AFF34D
:1001B800008008BD0000000018000020D0120008D0
:1001C80080B485B000AF78600023FB730023BB7355
:1001D8000F237B737B68DB78002B39D0274BDB68D8
:1001E800DB431B0ADBB203F00703FB73FB7BC3F1A2
:1001F8000403BB737A7BFB7B42FA03F37B737B6854
:100208005B781A46BB7B02FA03F3FB737B689A7828
:100218007B7B1340DAB2FB7B1343FB73FB7B1B0135
:10022800FB73174A7B681B781344FA7B83F8002317
:10023800134A7B681B785B09DBB218467B681B781E
:1002480003F01F03012101FA03F342F820300FE005
:100258000B497B681B785B09DBB218467B681B7807
:1002680003F01F0301229A4000F1200341F82320E4
:1002780000BF1437BD465DF8047B704700ED00E011
:1002880000E100E080B485B000AF786039600023F9
:10029800FB607B681B68FB60FA68254B1340FB60BA
:1002A8003B681A683B68DB681A433B685B691A431A
:1002B8003B689B691A433B68DB691A433B681B6AC6
:1002C8001A433B685B6A1A433B689B6A1A433B685C
:1002D8005B6B1A433B689B6B1343FA681343FB60E1
:1002E8007B68FA681A607B685B69FB60FB6823F0CF
:1002F8000703FB603B68DA6A3B681B6B1343FA68C9
:100308001343FB607B68FA685A613B681A697B682B
:100318005A603B685A687B689A603B689A687B6851
:10032800DA6000BF1437BD465DF8047B704700BF34
:100338003F801CF080B483B000AF78600B46FB7040
:10034800FB78002B06D07B681B6843F001027B68B2
:100358001A6005E07B681B6823F001027B681A605D
:1003680000BF0C37BD465DF8047B704780B485B08C
:1003780000AF78600023FB737B681B6803F0010300
:10038800002B02D00123FB7301E00023FB73FB7BEE
:1003980018461437BD465DF8047B704780B487B0B3
:1003A80000AF786039600023FB750023FB607B6831
:1003B800154A934202D8154B3B6101E0144B3B614F
:1003C8003B6803F00053002B03D03B695B68FB607C
:1003D80002E03B691B68FB60FB6823F0F02323F015
:1003E8008213FB60FA683B681340002B02D001239C
:1003F800FB7501E00023FB75FB7D18461C37BD46E5
:100408005DF8047B704700BF0F6402400060024043
:100418000064024080B485B000AF786039607B68C2
:10042800104A934202D8104BFB6001E00F4BFB606F
:100438003B6803F00053002B07D03B6823F0F02300
:1004480023F08213FA68D36006E03B6823F0F023B8
:1004580023F08213FA68936000BF1437BD465DF835
:10046800047B70470F640240006002400064024051
:1004780080B487B000AF7860396000237B610023C7
:100488003B610023FB6000237B6176E001227B69EE
:1004980002FA03F33B613B681A683B691340FB604F
:1004A800FA683B699A4265D17B681A687B695B0088
:1004B800032101FA03F3DB431A407B681A607B6867
:1004C8001A683B681B7919467B695B0001FA03F3DC
:1004D8001A437B681A603B681B79012B03D03B6881
:1004E8001B79022B2ED17B689A687B695B000321FC
:1004F80001FA03F3DB431A407B689A607B689A68C9
:100508003B685B7919467B695B0001FA03F31A4380
:100518007B689A607B685A687B699BB2194601239D
:100528008B40DB431A407B685A607B685B683A689B
:10053800927911467A6992B201FA02F292B21A439A
:100548007B685A607B68DA687B699BB25B00032131
:1005580001FA03F3DB431A407B68DA607B68DA68E8
:100568003B68DB7919467B695B0001FA03F31A43A0
:100578007B68DA607B6901337B617B690F2B85D9E6
:1005880000BF1C37BD465DF8047B704780B485B05A
:1005980000AF78600B467B8013467B700023FB60BE
:1005A8000023BB607A787B8803F007039B0002FA7C
:1005B80003F3FB607B88DB089BB218467B88DB086B
:1005C8009BB21A467B68083253F822207B8803F0D6
:1005D80007039B000F2101FA03F3DB4302EA03013F
:1005E8007B6800F1080243F822107B88DB089BB285
:1005F8001A467B68083253F82220FB681343BB6015
:100608007B88DB089BB21A467B680832B96843F8D6
:10061800221000BF1437BD465DF8047B7047000008
:1006280080B483B000AF78600B46FB70FB78002B7A
:1006380006D00A49094B1A6B7B6813430B6306E023
:100648000649064B1A6B7B68DB4313400B6300BFFC
:100658000C37BD465DF8047B704700BF0038024088
:1006680080B483B000AF78600B46FB70FB78002B3A
:1006780006D00A49094B1A6C7B6813430B6406E0E1
:100688000649064B1A6C7B68DB4313400B6400BFBA
:100698000C37BD465DF8047B704700BF0038024048
:1006A80080B485B000AF78600B467B800023FB7375
:1006B8007B681B899AB27B8813409BB2002B02D0BF
:1006C8000123FB7301E00023FB73FB7B18461437FF
:1006D800BD465DF8047B704780B485B000AF786094
:1006E80039600023FB817B681B88FB817B68294A72
:1006F800934213D07B68284A93420FD07B68B3F1AA
:10070800804F0BD07B68254A934207D07B68244AE8
:10071800934203D07B68234A934208D1FB8923F094
:100728007003FB813B685A88FB891343FB817B6814
:100738001D4A93420CD07B681C4A934208D0FB891F
:1007480023F44073FB813B681A89FB891343FB81BF
:100758007B68FA891A803B685A687B68DA623B686A
:100768001A887B681A857B680A4A934203D07B689B
:10077800094A934204D13B689B7A9AB27B681A86ED
:100788007B6801229A8200BF1437BD465DF8047B5E
:10079800704700BF00000140000401400004004011
:1007A80000080040000C0040001000400014004009
:1007B80080B483B000AF78600B46FB70FB78002BE9
:1007C80008D07B681B889BB243F080039AB27B6891
:1007D8001A8007E07B681B889BB223F080039AB2DB
:1007E8007B681A8000BF0C37BD465DF8047B7047F4
:1007F80080B483B000AF78600B46FB70FB78002BA9
:1008080008D07B681B889BB243F001039AB27B68CF
:100818001A8007E07B681B889BB223F001039AB219
:100828007B681A8000BF0C37BD465DF8047B7047B3
:1008380080B485B000AF7860396000237B810023E5
:10084800FB810023BB817B681B8C9BB223F01003C8
:100858009AB27B681A847B681B8CFB817B689B88B7
:10086800BB817B681B8B7B817B8923F4E0437B8185
:100878007B8923F440737B813B681B881B029AB2F7
:100888007B8913437B81FB8923F02003FB813B6831
:100898009B891B019AB2FB891343FB813B685B88E8
:1008A8001B019AB2FB891343FB817B68224A93425E
:1008B80003D07B68214A93422BD1FB8923F0800324
:1008C800FB813B68DB891B019AB2FB891343FB81DF
:1008D800FB8923F04003FB813B689B881B019AB28C
:1008E800FB891343FB81BB8923F48063BB81BB89EC
:1008F80023F40063BB813B681B8A9B009AB2BB89C7
:100908001343BB813B685B8A9B009AB2BB89134344
:10091800BB817B68BA899A807B687A891A833B682D
:100928009A687B689A637B68FA891A8400BF1437CF
:10093800BD465DF8047B704700000140000401409B
:1009480080B485B000AF7860396000237B810023D4
:10095800FB810023BB817B681B8C9BB223F48073D3
:100968009AB27B681A847B681B8CFB817B689B88A6
:10097800BB817B689B8B7B817B8923F070037B81A8
:100988007B8923F003037B813B681A887B891343A7
:100998007B81FB8923F40073FB813B689B891B02E5
:1009A8009AB2FB891343FB813B685B881B029AB2AE
:1009B800FB891343FB817B68224A934203D07B68FF
:1009C800214A93422BD1FB8923F40063FB813B68C6
:1009D800DB891B029AB2FB891343FB81FB8923F451
:1009E8008063FB813B689B881B029AB2FB89134397
:1009F800FB81BB8923F48053BB81BB8923F400535B
:100A0800BB813B681B8A1B019AB2BB891343BB811C
:100A18003B685B8A1B019AB2BB891343BB817B6825
:100A2800BA899A807B687A899A833B689A687B68D6
:100A3800DA637B68FA891A8400BF1437BD465DF80B
:100A4800047B7047000001400004014080B485B079
:100A580000AF786039600023BB8100237B810023CD
:100A6800FB817B681B8C9BB223F480539AB27B6812
:100A78001A847B681B8C7B817B689B88FB817B68E5
:100A88009B8BBB81BB8923F4E043BB81BB8923F4E7
:100A98004073BB813B681B881B029AB2BB89134316
:100AA800BB817B8923F400537B813B689B891B03B3
:100AB8009AB27B8913437B813B685B881B039AB29C
:100AC8007B8913437B817B68124A934203D07B68FE
:100AD800114A93420AD1FB8923F48043FB813B6886
:100AE8001B8A9B019AB2FB891343FB817B68FA89B5
:100AF8009A807B68BA899A833B689A687B681A648B
:100B08007B687A891A8400BF1437BD465DF8047B78
:100B1800704700BF000001400004014080B485B068
:100B280000AF78600B467B800023FB817B681B8BC2
:100B3800FB81FB8923F40063FB817B881B029AB24B
:100B4800FB891343FB817B68FA891A8300BF14373A
:100B5800BD465DF8047B704780B485B000AF78600F
:100B68000B467B800023FB817B689B8BFB81FB8989
:100B780023F00803FB81FA897B881343FB817B6898
:100B8800FA899A8300BF1437BD465DF8047B704725
:100B980080B485B000AF78600B467B800023FB8172
:100BA8007B689B8BFB81FB8923F40063FB817B883B
:100BB8001B029AB2FB891343FB817B68FA899A83EB
:100BC80000BF1437BD465DF8047B704780B483B01E
:100BD80000AF78600B467B8013467B707B78002BD8
:100BE80008D07B689B899AB27B8813439AB27B684A
:100BF8009A8109E07B689B899AB27B88DB439BB228
:100C080013409AB27B689A8100BF0C37BD465DF8E5
:100C1800047B704780B485B000AF78600B467B805A
:100C28000023FB730023BB8100237B817B681B8A25
:100C38009AB27B881340BB817B689B899AB27B8878
:100C480013407B81BB89002B05D07B89002B02D008
:100C58000123FB7301E00023FB73FB7B1846143769
:100C6800BD465DF8047B704780B483B000AF786000
:100C78000B467B807B88DB439AB27B681A8200BF75
:100C88000C37BD465DF8047B7047000080B500AFA7
:100C9800354B1A68354B1B6819461046FFF77EFB23
:100CA8000346002B5ED0324B1B68002B4CD000BF94
:100CB8002D4B1B681846FFF759FB0346002BF7D14D
:100CC800294B1A68294B1B6819461046FFF7A2FBE7
:100CD800284B1B681A46284B9A60254B1B684FF611
:100CE800FF72934228BF1346234A13611E4B1B68A9
:100CF80021491846FFF7C6FA1B4B1B680121184605
:100D0800FFF718FB1B4B1A68194B1B68B3F5803F9C
:100D180003D2174B1B685B0000E0184B1344154ABD
:100D28001360134B1A68124B1B684FF6FF718B4206
:100D380028BF0B46D31A0E4A13600B4B1B680121C0
:100D48001846FFF7F7FA0DE0074B1B680021184615
:100D5800FFF7F0FA044B1A68044B1B681946104653
:100D6800FFF758FB00BF80BD080000200C000020E2
:100D7800000000203800002078000020FEFF01005D
:100D880080B500AFFFF782FF00BF80BD80B500AF20
:100D9800FFF77CFF00BF80BD80B500AF022105488A
:100DA800FFF77EFC0346002B01D0034B1B6800BFF6
:100DB80080BD00BF003C00400400002080B500AFAB
:100DC80000F006F800F052F800F0F2F8FEE7000034
:100DD80080B584B000AF01210120FFF721FC012379
:100DE800BB6000233B7307F1080319461D48FFF752
:100DF8003FFB01210820FFF713FC4FF48053BB6031
:100E080001233B7303237B730023BB730023FB7312
:100E180007F1080319461448FFF72AFB4FF460430B
:100E28003B6002233B7103237B710023BB710123C9
:100E3800FB713B4619460C48FFF71AFB02220D21AD
:100E48000948FFF7A3FB02220E210748FFF79EFB84
:100E580002220F210448FFF799FB00BF1037BD4657
:100E680080BD00BF00000240000C024080B584B085
:100E780000AF1C233B7300237B730123BB73012347
:100E8800FB7307F10C031846FFF79AF901210120BB
:100E9800FFF7E6FB41F287337B6041F267033B8053
:100EA80000233B8100237B803B4619464FF080405E
:100EB800FFF712FC012201214FF08040FFF786FE68
:100EC80001214FF08040FFF793FC00BF1037BD466B
:100ED80080BD000080B500AF01214FF08040FFF7D2
:100EE80099FE0346002B57D001214FF08040FFF7B1
:100EF800BBFE2A4B1B780133DAB2284B1A70274BFA
:100F08001B7803F00103DBB2002B05D0244A244BE5
:100F18005B6983F480535361224B1B686433214A15
:100F2800136021481F4B1B68204A82FB03121A4496
:100F38001112DA178A1A40F24D1101FB02F29A1ABD
:100F4800C2F5A6730133C3631748164B1B685333A6
:100F5800164A82FB03121A441112DA178A1A40F24F
:100F68004D1101FB02F29A1AC2F5A673013303640C
:100F78000D480C4B1B68F9330C4A82FB03121A44C8
:100F88001112DA178A1A40F24D1101FB02F29A1A6D
:100F9800C2F5A6730133836300BF80BD3000002013
:100FA800000C02403400002000080040B107CEC405
:100FB80080B58AB000AF01210420FFF751FB284B10
:100FC8001B68284AA2FB03231B0EFB8440F29923CB
:100FD800FB61FB8C3B8300233B8400237B8307F16D
:100FE800180319462048FFF777FB6023BB800123CD
:100FF800FB800023FB6000233B820123FB8000234E
:10100800FB603B1D19461848FFF712FC08211648DB
:10101800FFF784FD0123FB800023FB603B1D19467D
:101028001148FFF78DFC08210F48FFF795FD0123B4
:10103800FB800023FB603B1D19460B48FFF706FDAC
:1010480008210948FFF7A4FD01210748FFF7B0FB75
:1010580001210548FFF7CCFB00BF2837BD4680BDFE
:101068001000002029D9426600080040DFF834D07B
:10107800002103E00C4B5B58435004310B480C4BE8
:1010880042189A42F6D30B4A02E0002342F8043B86
:10109800094B9A42F9D300F041F800F0F1F8FFF754
:1010A8008DFE704700000220F012000800000020AA
:1010B8001400002014000020B4000020FEE780B4D3
:1010C80000AF00BFBD465DF8047B704780B400AF39
:1010D800FEE780B400AFFEE780B400AFFEE780B45F
:1010E80000AFFEE780B400AF00BFBD465DF8047BEB
:1010F800704780B400AF00BFBD465DF8047B704701
:1011080080B400AF00BFBD465DF8047B704780B473
:1011180000AF00BFBD465DF8047B704780B500AFE7
:10112800164A164BD3F8883043F47003C2F8883057
:10113800134A134B1B6843F001031360104B002242
:101148009A600F4A0E4B1B6823F0847323F4803394
:1011580013600B4B0B4A5A60094A094B1B6823F46E
:1011680080231360064B0022DA6000F00DF8034B71
:101178004FF000629A6000BF80BD00BF00ED00E044
:10118800003802401030002480B483B000AF002340
:101198007B6000233B60364A354B1B6843F4803341
:1011A8001360334B1B6803F400333B607B680133E7
:1011B8007B603B68002B03D17B68B3F5A06FF0D14F
:1011C8002B4B1B6803F40033002B02D001233B6038
:1011D80001E000233B603B68012B42D1244A244BA9
:1011E8001B6C43F080531364224A224B1B6843F460
:1011F800404313601E4A1E4B9B6893601C4A1C4B5D
:101208009B6843F400439360194A194B9B6843F465
:10121800A0539360164B184A5A60154A144B1B6822
:1012280043F08073136000BF114B1B6803F0007319
:10123800002BF9D0114B40F205621A600C4A0C4B96
:101248009B6823F003039360094A094B9B6843F0AA
:101258000203936000BF064B9B6803F00C03082B46
:10126800F9D100BF0C37BD465DF8047B704700BF5D
:10127800003802400070004008544007003C02401B
:1012880070B50D4E0D4CA41BA4100025A54209D124
:101298000B4E0C4C00F018F8A41BA4100025A54216
:1012A80005D170BD56F8253098470135EEE756F858
:1012B800253098470135F2E7E8120008E8120008DF
:1012C800E8120008EC120008F8B500BFF8BC08BC2A
:1012D8009E467047F8B500BFF8BC08BC9E467047EC
:0412E800AD0100084C
:0412EC00890100086C
:1012F000FFFF000001000000B8600240000000286D
:04130000007A030A62
:04000005080010756A
:00000001FF
