:020000040800F2
:10000000000002204112000893120008A11200080B
:10001000A7120008AD120008B3120008000000008B
:10002000000000000000000000000000B9120008FD
:10003000C712000800000000D5120008E3120008F3
:100040009112000891120008911200089112000804
:1000500091120008911200089112000891120008F4
:10006000911200089112000891120008C10E0008B8
:1000700091120008911200089112000891120008D4
:1000800091120008911200089112000891120008C4
:1000900091120008911200089112000891120008B4
:1000A00091120008911200089112000891120008A4
:1000B00035110008911200089112000891120008F1
:1000C0009112000891120008911200089112000884
:1000D0009112000891120008911200089112000874
:1000E0009112000891120008911200089112000864
:1000F000911200089112000891120008B50E000834
:10010000911200089112000891120008CD0E00080B
:100110009112000891120008911200089112000833
:100120009112000891120008911200089112000823
:100130009112000891120008911200089112000813
:100140009112000891120008911200089112000803
:1001500091120008911200089112000891120008F3
:1001600091120008911200089112000891120008E3
:1001700091120008911200089112000891120008D3
:08018000911200089112000821
:1001880010B5054C237833B9044B13B10448AFF3C9
:1001980000800123237010BD14000020000000001F
:1001A8009C14000808B5034B1BB103490348AFF37F
:1001B800008008BD00000000180000209C14000802
:1001C80080B485B000AF78600023FB730023BB7355
:1001D8000F237B737B68DB78002B39D0274BDB68D8
:1001E800DB431B0ADBB203F00703FB73FB7BC3F1A2
:1001F8000403BB737A7BFB7B42FA03F37B737B6854
:100208005B781A46BB7B02FA03F3FB737B689A7828
:100218007B7B1340DAB2FB7B1343FB73FB7B1B0135
:10022800FB73174A7B681B781344FA7B83F8002317
:10023800134A7B681B785B09DBB218467B681B781E
:1002480003F01F03012101FA03F342F820300FE005
:100258000B497B681B785B09DBB218467B681B7807
:1002680003F01F0301229A4000F1200341F82320E4
:1002780000BF1437BD465DF8047B704700ED00E011
:1002880000E100E080B485B000AF786039600023F9
:10029800FB607B681B68FB60FA68254B1340FB60BA
:1002A8003B681A683B68DB681A433B685B691A431A
:1002B8003B689B691A433B68DB691A433B681B6AC6
:1002C8001A433B685B6A1A433B689B6A1A433B685C
:1002D8005B6B1A433B689B6B1343FA681343FB60E1
:1002E8007B68FA681A607B685B69FB60FB6823F0CF
:1002F8000703FB603B68DA6A3B681B6B1343FA68C9
:100308001343FB607B68FA685A613B681A697B682B
:100318005A603B685A687B689A603B689A687B6851
:10032800DA6000BF1437BD465DF8047B704700BF34
:100338003F801CF080B483B000AF78600B46FB7040
:10034800FB78002B06D07B681B6843F001027B68B2
:100358001A6005E07B681B6823F001027B681A605D
:1003680000BF0C37BD465DF8047B704780B485B08C
:1003780000AF78600023FB737B681B6803F0010300
:10038800002B02D00123FB7301E00023FB73FB7BEE
:1003980018461437BD465DF8047B704780B487B0B3
:1003A80000AF786039600023FB750023FB607B6831
:1003B800154A934202D8154B3B6101E0144B3B614F
:1003C8003B6803F00053002B03D03B695B68FB607C
:1003D80002E03B691B68FB60FB6823F0F02323F015
:1003E8008213FB60FA683B681340002B02D001239C
:1003F800FB7501E00023FB75FB7D18461C37BD46E5
:100408005DF8047B704700BF0F6402400060024043
:100418000064024080B485B000AF786039607B68C2
:10042800104A934202D8104BFB6001E00F4BFB606F
:100438003B6803F00053002B07D03B6823F0F02300
:1004480023F08213FA68D36006E03B6823F0F023B8
:1004580023F08213FA68936000BF1437BD465DF835
:10046800047B70470F640240006002400064024051
:1004780080B487B000AF7860396000237B610023C7
:100488003B610023FB6000237B6176E001227B69EE
:1004980002FA03F33B613B681A683B691340FB604F
:1004A800FA683B699A4265D17B681A687B695B0088
:1004B800032101FA03F3DB431A407B681A607B6867
:1004C8001A683B681B7919467B695B0001FA03F3DC
:1004D8001A437B681A603B681B79012B03D03B6881
:1004E8001B79022B2ED17B689A687B695B000321FC
:1004F80001FA03F3DB431A407B689A607B689A68C9
:100508003B685B7919467B695B0001FA03F31A4380
:100518007B689A607B685A687B699BB2194601239D
:100528008B40DB431A407B685A607B685B683A689B
:10053800927911467A6992B201FA02F292B21A439A
:100548007B685A607B68DA687B699BB25B00032131
:1005580001FA03F3DB431A407B68DA607B68DA68E8
:100568003B68DB7919467B695B0001FA03F31A43A0
:100578007B68DA607B6901337B617B690F2B85D9E6
:1005880000BF1C37BD465DF8047B704780B485B05A
:1005980000AF78600B467B8013467B700023FB60BE
:1005A8000023BB607A787B8803F007039B0002FA7C
:1005B80003F3FB607B88DB089BB218467B88DB086B
:1005C8009BB21A467B68083253F822207B8803F0D6
:1005D80007039B000F2101FA03F3DB4302EA03013F
:1005E8007B6800F1080243F822107B88DB089BB285
:1005F8001A467B68083253F82220FB681343BB6015
:100608007B88DB089BB21A467B680832B96843F8D6
:10061800221000BF1437BD465DF8047B7047000008
:1006280080B483B000AF78600B46FB70FB78002B7A
:1006380006D00A49094B1A6B7B6813430B6306E023
:100648000649064B1A6B7B68DB4313400B6300BFFC
:100658000C37BD465DF8047B704700BF0038024088
:1006680080B483B000AF78600B46FB70FB78002B3A
:1006780006D00A49094B1A6C7B6813430B6406E0E1
:100688000649064B1A6C7B68DB4313400B6400BFBA
:100698000C37BD465DF8047B704700BF0038024048
:1006A80080B485B000AF78600B467B800023FB7375
:1006B8007B681B899AB27B8813409BB2002B02D0BF
:1006C8000123FB7301E00023FB73FB7B18461437FF
:1006D800BD465DF8047B704780B485B000AF786094
:1006E80039600023FB817B681B88FB817B68294A72
:1006F800934213D07B68284A93420FD07B68B3F1AA
:10070800804F0BD07B68254A934207D07B68244AE8
:10071800934203D07B68234A934208D1FB8923F094
:100728007003FB813B685A88FB891343FB817B6814
:100738001D4A93420CD07B681C4A934208D0FB891F
:1007480023F44073FB813B681A89FB891343FB81BF
:100758007B68FA891A803B685A687B68DA623B686A
:100768001A887B681A857B680A4A934203D07B689B
:10077800094A934204D13B689B7A9AB27B681A86ED
:100788007B6801229A8200BF1437BD465DF8047B5E
:10079800704700BF00000140000401400004004011
:1007A80000080040000C0040001000400014004009
:1007B80080B483B000AF78600B46FB70FB78002BE9
:1007C80008D07B681B889BB243F080039AB27B6891
:1007D8001A8007E07B681B889BB223F080039AB2DB
:1007E8007B681A8000BF0C37BD465DF8047B7047F4
:1007F80080B483B000AF78600B46FB70FB78002BA9
:1008080008D07B681B889BB243F001039AB27B68CF
:100818001A8007E07B681B889BB223F001039AB219
:100828007B681A8000BF0C37BD465DF8047B7047B3
:1008380080B485B000AF7860396000237B810023E5
:10084800FB810023BB817B681B8C9BB223F00103D7
:100858009AB27B681A847B681B8CFB817B689B88B7
:10086800BB817B681B8B7B817B8923F070037B8139
:100878007B8923F003037B813B681A887B891343B8
:100888007B81FB8923F00203FB813B689A89FB8902
:100898001343FB813B685A88FB891343FB817B68C0
:1008A8001E4A934203D07B681D4A934223D1FB8999
:1008B80023F00803FB813B68DA89FB891343FB813A
:1008C800FB8923F00403FB813B689A88FB89134367
:1008D800FB81BB8923F48073BB81BB8923F400733C
:1008E800BB813B681A8ABB891343BB813B685A8A20
:1008F800BB891343BB817B68BA899A807B687A89F4
:100908001A833B689A687B685A637B68FA891A84F9
:1009180000BF1437BD465DF8047B704700000140F6
:100928000004014080B485B000AF786039600023CE
:100938007B810023FB810023BB817B681B8C9BB2DE
:1009480023F010039AB27B681A847B681B8CFB81A6
:100958007B689B88BB817B681B8B7B817B8923F4AD
:10096800E0437B817B8923F440737B813B681B8850
:100978001B029AB27B8913437B81FB8923F02003F6
:10098800FB813B689B891B019AB2FB891343FB815E
:100998003B685B881B019AB2FB891343FB817B6828
:1009A800224A934203D07B68214A93422BD1FB8988
:1009B80023F08003FB813B68DB891B019AB2FB892A
:1009C8001343FB81FB8923F04003FB813B689B8831
:1009D8001B019AB2FB891343FB81BB8923F4806313
:1009E800BB81BB8923F40063BB813B681B8A9B00E6
:1009F8009AB2BB891343BB813B685B8A9B009AB25E
:100A0800BB891343BB817B68BA899A807B687A89E2
:100A18001A833B689A687B689A637B68FA891A84A8
:100A280000BF1437BD465DF8047B704700000140E5
:100A38000004014080B485B000AF786039600023BD
:100A48007B810023FB810023BB817B681B8C9BB2CD
:100A580023F480739AB27B681A847B681B8CFB81B1
:100A68007B689B88BB817B689B8B7B817B8923F020
:100A780070037B817B8923F003037B813B681A88A1
:100A88007B8913437B81FB8923F40073FB813B68DB
:100A98009B891B029AB2FB891343FB813B685B88E5
:100AA8001B029AB2FB891343FB817B68224A93425B
:100AB80003D07B68214A93422BD1FB8923F400633E
:100AC800FB813B68DB891B029AB2FB891343FB81DC
:100AD800FB8923F48063FB813B689B881B029AB2E5
:100AE800FB891343FB81BB8923F48053BB81BB89FA
:100AF80023F40053BB813B681B8A1B019AB2BB8954
:100B08001343BB813B685B8A1B019AB2BB891343C1
:100B1800BB817B68BA899A807B687A899A833B68AB
:100B28009A687B68DA637B68FA891A8400BF14378D
:100B3800BD465DF8047B7047000001400004014099
:100B480080B485B000AF786039600023BB81002392
:100B58007B810023FB817B681B8C9BB223F4805331
:100B68009AB27B681A847B681B8C7B817B689B8824
:100B7800FB817B689B8BBB81BB8923F4E043BB81F2
:100B8800BB8923F44073BB813B681B881B029AB264
:100B9800BB891343BB817B8923F400537B813B686A
:100BA8009B891B039AB27B8913437B813B685B88D3
:100BB8001B039AB27B8913437B817B68124A934259
:100BC80003D07B68114A93420AD1FB8923F48043FE
:100BD800FB813B681B8A9B019AB2FB891343FB810B
:100BE8007B68FA899A807B68BA899A833B689A6895
:100BF8007B681A647B687A891A8400BF1437BD46FB
:100C08005DF8047B704700BF00000140000401400C
:100C180080B485B000AF78600B467B800023FB81F1
:100C28007B681B8BFB81FB8923F00803FB81FA8916
:100C38007B881343FB817B68FA891A8300BF1437CA
:100C4800BD465DF8047B704780B485B000AF78601E
:100C58000B467B800023FB817B681B8BFB81FB8918
:100C680023F40063FB817B881B029AB2FB89134340
:100C7800FB817B68FA891A8300BF1437BD465DF88B
:100C8800047B704780B485B000AF78600B467B80EA
:100C98000023FB817B689B8BFB81FB8923F0080386
:100CA800FB81FA897B881343FB817B68FA899A83E5
:100CB80000BF1437BD465DF8047B704780B485B02B
:100CC80000AF78600B467B800023FB817B689B8BA1
:100CD800FB81FB8923F40063FB817B881B029AB2AA
:100CE800FB891343FB817B68FA899A8300BF143719
:100CF800BD465DF8047B704780B483B000AF786070
:100D08000B467B8013467B707B78002B08D07B6872
:100D18009B899AB27B8813439AB27B689A8109E0CF
:100D28007B689B899AB27B88DB439BB213409AB25B
:100D38007B689A8100BF0C37BD465DF8047B70471D
:100D480080B485B000AF78600B467B800023FB73CE
:100D58000023BB8100237B817B681B8A9AB27B8836
:100D68001340BB817B689B899AB27B8813407B8147
:100D7800BB89002B05D07B89002B02D00123FB7394
:100D880001E00023FB73FB7B18461437BD465DF872
:100D9800047B704780B483B000AF78600B467B80DB
:100DA8007B88DB439AB27B681A8200BF0C37BD464A
:100DB8005DF8047B7047000080B500AF354B1A68BA
:100DC800354B1B6819461046FFF7E8FA0346002B17
:100DD8005ED0324B1B68002B4CD000BF2D4B1B68DC
:100DE8001846FFF7C3FA0346002BF7D1294B1A68B8
:100DF800294B1B6819461046FFF70CFB284B1B684C
:100E08001A46284B9A60254B1B684FF6FF7293428F
:100E180028BF1346234A13611E4B1B6821491846F5
:100E2800FFF730FA1B4B1B6801211846FFF782FABF
:100E38001B4B1A68194B1B68B3F5803F03D2174B3D
:100E48001B685B0000E0184B1344154A1360134BF2
:100E58001A68124B1B684FF6FF718B4228BF0B466E
:100E6800D31A0E4A13600B4B1B6801211846FFF773
:100E780061FA0DE0074B1B6800211846FFF75AFA84
:100E8800044B1A68044B1B6819461046FFF7C2FA50
:100E980000BF80BD080000200C00002000000020DA
:100EA8003800002078000020FEFF010080B500AF68
:100EB800FFF782FF00BF80BD80B500AFFFF77CFF62
:100EC80000BF80BD80B500AF02210548FFF7E8FBF1
:100ED8000346002B01D0034B1B6800BF80BD00BF39
:100EE800003C00400400002080B500AF00F06EF820
:100EF80000F09EF800F002F800BF80BD80B58AB00F
:100F080000AF01210420FFF7ABFB2D4B1B682D4AD6
:100F1800A2FB03231B0EFB8440F29923FB61FB8C8D
:100F28003B8300233B8400237B8307F11803194686
:100F38002548FFF7D1FB6023BB800123FB800023FA
:100F4800FB6000233B823B1D19461F48FFF770FCDE
:100F580008211D48FFF75CFE0123FB800023FB608E
:100F68003B1D19461848FFF7DDFC08211648FFF716
:100F78006BFE0123FB800023FB603B1D19461248D2
:100F8800FFF758FD08211048FFF77CFE0123FB807E
:100F98000023FB603B1D19460B48FFF7D1FD0821D4
:100FA8000948FFF78BFE01210748FFF701FC0121E3
:100FB8000548FFF71DFC00BF2837BD4680BD00BFB0
:100FC8001000002029D942660008004080B582B090
:100FD80000AF01210820FFF723FB4FF470433B606B
:100FE80002233B7103237B710023BB710123FB7137
:100FF8003B4619460D48FFF73BFA02220C210B48E5
:10100800FFF7C4FA02220D210848FFF7BFFA0222AF
:101018000E210648FFF7BAFA02220F210348FFF70C
:10102800B5FA00BF0837BD4680BD00BF000C0240BE
:1010380080B584B000AF1C233B7300237B7301236E
:10104800BB730123FB7307F10C031846FFF7B8F8CD
:1010580001210120FFF704FB42F2CF033B8040F25D
:10106800E7337B6000233B8100237B803B461946A6
:101078004FF08040FFF730FB012201214FF0804004
:10108800FFF73AFE01214FF08040FFF7B1FB00BFA8
:101098001037BD4680BD00002DE9B04384B000AFD5
:1010A800FFF722FF0A23013BBB600A231A464FF0D1
:1010B80000034FEA431949EAD2694FEA42180A2362
:1010C8001A464FF000035D0145EAD26554010A2330
:1010D8009B0003330733DB08DB00ADEB030D6B46E6
:1010E80003339B089B007B600023FB600FE00A230F
:1010F8004FF6FF7292FBF3F3FA6802FB03F319460B
:101108007B68FA6843F82210FB680133FB600A2207
:10111800FB689342EBDB7A68034B1B689B00134424
:10112800184600F047F8F6E73000002080B500AF19
:1011380001214FF08040FFF703FE0346002B30D01B
:1011480001214FF08040FFF725FE174B1B78002B3D
:1011580005D1164B1B680133144A136004E0134B86
:101168001B68013B114A1360104B1B680A2293420B
:1011780003D00E4B1B68002B13D10B4B1B78002B95
:1011880006D1094B01221A70084B09221A6008E09F
:10119800054B00221A70064B1B780133DAB2044B58
:1011A8001A7000BF80BD00BF35000020300000204D
:1011B8003400002080B483B000AF78601C4B1B78EB
:1011C800032B2BD801A252F823F000BFE511000829
:1011D800F51100080512000815120008154A7B6869
:1011E8001B685363134B00221A641AE0114A7B6888
:1011F8001B6893630F4B00225A6312E00D4A7B6809
:101208001B68D3630B4B00229A630AE0094A7B6888
:101218001B681364074B0022DA6302E0044B0022C8
:101228001A7000BF0C37BD465DF8047B704700BFDD
:101238003400002000080040DFF834D0002103E02B
:101248000C4B5B58435004310B480C4B42189A42E4
:10125800F6D30B4A02E0002342F8043B094B9A42BA
:10126800F9D300F041F800F0F1F8FFF715FF7047E7
:1012780000000220BC140008000000201400002018
:1012880014000020B4000020FEE780B400AF00BFC7
:10129800BD465DF8047B704780B400AFFEE780B4BC
:1012A80000AFFEE780B400AFFEE780B400AFFEE712
:1012B80080B400AF00BFBD465DF8047B704780B4C2
:1012C80000AF00BFBD465DF8047B704780B400AF37
:1012D80000BFBD465DF8047B704780B400AF00BF17
:1012E800BD465DF8047B704780B500AF164A164BC3
:1012F800D3F8883043F47003C2F88830134A134B8C
:101308001B6843F001031360104B00229A600F4AD8
:101318000E4B1B6823F0847323F4803313600B4B4C
:101328000B4A5A60094A094B1B6823F4802313604F
:10133800064B0022DA6000F00DF8034B4FF0006214
:101348009A6000BF80BD00BF00ED00E00038024099
:101358001030002480B483B000AF00237B600023EA
:101368003B60364A354B1B6843F480331360334B7C
:101378001B6803F400333B607B6801337B603B6888
:10138800002B03D17B68B3F5A06FF0D12B4B1B6802
:1013980003F40033002B02D001233B6001E000235B
:1013A8003B603B68012B42D1244A244B1B6C43F021
:1013B80080531364224A224B1B6843F44043136052
:1013C8001E4A1E4B9B6893601C4A1C4B9B6843F447
:1013D80000439360194A194B9B6843F4A0539360E8
:1013E800164B184A5A60154A144B1B6843F0807311
:1013F800136000BF114B1B6803F00073002BF9D07A
:10140800114B40F205621A600C4A0C4B9B6823F0A2
:1014180003039360094A094B9B6843F002039360F6
:1014280000BF064B9B6803F00C03082BF9D100BFE3
:101438000C37BD465DF8047B704700BF003802409A
:101448000070004008544007003C024070B50D4E43
:101458000D4CA41BA4100025A54209D10B4E0C4C21
:1014680000F018F8A41BA4100025A54205D170BDF2
:1014780056F8253098470135EEE756F82530984755
:101488000135F2E7B4140008B4140008B4140008D5
:10149800B8140008F8B500BFF8BC08BC9E467047F1
:0C14A800F8B500BFF8BC08BC9E467047B9
:0414B400AD0100087E
:0414B800890100089E
:1014BC00FFFF000001000000B8600240000000289F
:0414CC00007A030A95
:04000005080012419C
:00000001FF
