:020000040800F2
:10000000000002205D1F0008AF1F0008BD1F000890
:10001000C31F0008C91F0008CF1F00080000000010
:10002000000000000000000000000000D51F0008D4
:10003000E31F000800000000F11F0008FF1F000878
:10004000AD1F0008AD1F0008AD1F0008AD1F000860
:10005000AD1F0008AD1F0008AD1F0008AD1F000850
:10006000AD1F0008AD1F0008AD1F0008D51900081E
:10007000AD1F0008AD1F0008AD1F0008AD1F000830
:10008000AD1F0008AD1F0008AD1F0008AD1F000820
:10009000AD1F0008AD1F0008AD1F0008AD1F000810
:1000A000AD1F0008AD1F0008AD1F0008AD1F000800
:1000B000691E0008AD1F0008AD1F0008AD1F000835
:1000C000AD1F0008AD1F0008AD1F0008AD1F0008E0
:1000D000AD1F0008D51E0008AD1F0008AD1F0008A9
:1000E000AD1F0008AD1F0008AD1F0008AD1F0008C0
:1000F000AD1F0008AD1F0008AD1F0008C91900089A
:10010000AD1F0008AD1F0008AD1F0008E119000871
:10011000AD1F0008AD1F0008AD1F0008AD1F00088F
:10012000AD1F0008AD1F0008AD1F0008AD1F00087F
:10013000AD1F0008AD1F0008AD1F0008AD1F00086F
:10014000AD1F0008AD1F0008AD1F0008AD1F00085F
:10015000AD1F0008AD1F0008AD1F0008AD1F00084F
:10016000AD1F0008AD1F0008AD1F0008AD1F00083F
:10017000AD1F0008AD1F0008AD1F0008AD1F00082F
:08018000AD1F0008AD1F0008CF
:1001880010B5054C237833B9044B13B10448AFF3C9
:1001980000800123237010BD28000020000000000B
:1001A800B821000808B5034B1BB103490348AFF356
:1001B800008008BD000000002C000020B8210008C5
:1001C80080B485B000AF78600023FB730023BB7355
:1001D8000F237B737B68DB78002B39D0274BDB68D8
:1001E800DB431B0ADBB203F00703FB73FB7BC3F1A2
:1001F8000403BB737A7BFB7B42FA03F37B737B6854
:100208005B781A46BB7B02FA03F3FB737B689A7828
:100218007B7B1340DAB2FB7B1343FB73FB7B1B0135
:10022800FB73174A7B681B781344FA7B83F8002317
:10023800134A7B681B785B09DBB218467B681B781E
:1002480003F01F03012101FA03F342F820300FE005
:100258000B497B681B785B09DBB218467B681B7807
:1002680003F01F0301229A4000F1200341F82320E4
:1002780000BF1437BD465DF8047B704700ED00E011
:1002880000E100E080B500AF01214FF4807000F07C
:1002980087FD00214FF4807000F082FD00BF80BD13
:1002A80080B485B000AF786039600023FB6000231C
:1002B800FB727B685B68FB60FB6823F0407323F488
:1002C8008073FB603B681B791A023B681B68134309
:1002D800FA681343FB607B68FA685A607B689B681E
:1002E800FB60FA68184B1340FB603B681A693B686F
:1002F800DB681A433B689B681A433B685B795B0081
:100308001343FA681343FB607B68FA689A607B685A
:10031800DB6AFB60FB6823F47003FB603B681B7DB2
:10032800013BDAB2FB7A1343FB72FB7A1B05FA68CE
:100338001343FB607B68FA68DA6200BF1437BD4676
:100348005DF8047B704700BFFDF7FFC080B483B041
:1003580000AF78607B6800221A607B6800221A71FF
:100368007B6800225A717B6800229A607B680022B1
:10037800DA607B6800221A617B6801221A7500BF67
:100388000C37BD465DF8047B7047000080B485B02B
:1003980000AF78600023FB600E4B5B68FB60FA6877
:1003A8000D4B1340FB607B681A687B685B681A43D7
:1003B8007B689B681A437B68DB681343FA681343BE
:1003C800FB60044AFB68536000BF1437BD465DF804
:1003D800047B704700230140E030FCFF80B483B009
:1003E80000AF78600B46FB70FB78002B06D07B686B
:1003F8009B6843F001027B689A6005E07B689B6814
:1004080023F001027B689A6000BF0C37BD465DF897
:10041800047B704780B485B000AF78600846114609
:100428001A460346FB700B46BB7013467B700023CD
:10043800FB600023BB60FB78092B23D97B68DB6852
:10044800FB60FB78A3F10A0213465B001344072202
:1004580002FA03F3BB60BB68DB43FA681340FB6036
:100468007978FB78A3F10A0213465B00134401FA7A
:1004780003F3BB60FA68BB681343FB607B68FA68E8
:10048800DA601EE07B681B69FB60FA7813465B0044
:100498001344072202FA03F3BB60BB68DB43FA6824
:1004A8001340FB607978FA7813465B00134401FA2D
:1004B80003F3BB60FA68BB681343FB607B68FA68A8
:1004C8001A61BB78062B21D87B685B6BFB60BB7815
:1004D8005A1E13469B0013441F2202FA03F3BB6003
:1004E800BB68DB43FA681340FB60F978BB785A1E97
:1004F80013469B00134401FA03F3BB60FA68BB6818
:100508001343FB607B68FA685A6347E0BB780C2B9F
:1005180021D87B681B6BFB60BB78DA1F13469B00F6
:1005280013441F2202FA03F3BB60BB68DB43FA687B
:100538001340FB60F978BB78DA1F13469B0013441D
:1005480001FA03F3BB60FA68BB681343FB607B687E
:10055800FA681A6322E07B68DB6AFB60BB78A3F168
:100568000D0213469B0013441F2202FA03F3BB60DB
:10057800BB68DB43FA681340FB60F978BB78A3F1EA
:100588000D0213469B00134401FA03F3BB60FA689B
:10059800BB681343FB607B68FA68DA6200BF1437F4
:1005A800BD465DF8047B704780B483B000AF7860C7
:1005B8007B689B6843F080427B689A6000BF0C3779
:1005C800BD465DF8047B704780B483B000AF7860A7
:1005D8007B68DB6C9BB218460C37BD465DF8047B24
:1005E800704780B485B000AF78600B46FB7000237D
:1005F800FB737B681A68FB781340002B02D0012339
:10060800FB7301E00023FB73FB7B18461437BD46E0
:100618005DF8047B7047000080B483B000AF786059
:100628007B681B6823F001027B681A607B680022E4
:100638001A607B6800225A607B6800229A607B6897
:100648000022DA607B6800221A617B6821225A61E5
:100658007B68464A934203D1454B3D229A607EE02F
:100668007B68444A934204D1414B4FF474629A60C8
:1006780075E07B68404A934204D13D4B4FF47412B5
:100688009A606CE07B683D4A934204D1384B4FF046
:1006980074629A6063E07B68394A934203D1344BB1
:1006A800384ADA605BE07B68374A934203D1304BC3
:1006B800364ADA6053E07B68354A934203D12C4BC3
:1006C800344ADA604BE07B68334A934204D1284BC2
:1006D8004FF03D52DA6042E07B68304A934203D1E2
:1006E8002F4B3D229A603AE07B682E4A934204D110
:1006F8002B4B4FF474629A6031E07B682A4A93422C
:1007080004D1274B4FF474129A6028E07B68274A7B
:10071800934204D1224B4FF074629A601FE07B68C9
:10072800234A934203D11E4B164ADA6017E07B68CE
:10073800204A934203D11A4B144ADA600FE07B68CF
:100748001D4A934203D1164B124ADA6007E07B68D0
:100758001A4A934203D1124B4FF03D52DA6000BF60
:100768000C37BD465DF8047B704700BF106002403F
:100778000060024028600240406002405860024029
:10078800706002403D00002088600240400F002059
:10079800A060024000003D20B860024010640240A2
:1007A80000640240286402404064024058640240E9
:1007B8007064024088640240A0640240B864024049
:1007C80080B485B000AF786039600023FB607B6837
:1007D8001B68FB60FA68254B1340FB603B681A688E
:1007E8003B68DB681A433B685B691A433B689B6953
:1007F8001A433B68DB691A433B681B6A1A433B6828
:100808005B6A1A433B689B6A1A433B685B6B1A43F3
:100818003B689B6B1343FA681343FB607B68FA6879
:100828001A607B685B69FB60FB6823F00703FB6069
:100838003B68DA6A3B681B6B1343FA681343FB6037
:100848007B68FA685A613B681A697B685A603B683A
:100858005A687B689A603B689A687B68DA6000BF70
:100868001437BD465DF8047B704700BF3F801CF01D
:1008780080B483B000AF78600B46FB70FB78002B28
:1008880006D07B681B6843F001027B681A6005E0AC
:100898007B681B6823F001027B681A6000BF0C3775
:1008A800BD465DF8047B704780B485B000AF7860C2
:1008B8000023FB737B681B6803F00103002B02D045
:1008C8000123FB7301E00023FB73FB7B18461437FD
:1008D800BD465DF8047B704780B487B000AF786090
:1008E80039600023FB750023FB607B68154A93423F
:1008F80002D8154B3B6101E0144B3B613B6803F0A8
:100908000053002B03D03B695B68FB6002E03B6946
:100918001B68FB60FB6823F0F02323F08213FB6065
:10092800FA683B681340002B02D00123FB7501E0F5
:100938000023FB75FB7D18461C37BD465DF8047B1C
:10094800704700BF0F64024000600240006402402C
:1009580080B485B000AF786039607B68104A9342F4
:1009680002D8104BFB6001E00F4BFB603B6803F0C3
:100978000053002B07D03B6823F0F02323F08213A9
:10098800FA68D36006E03B6823F0F02323F0821373
:10099800FA68936000BF1437BD465DF8047B704762
:1009A8000F640240006002400064024080B487B0D7
:1009B80000AF7860396000237B6100233B6100232E
:1009C800FB6000237B6176E001227B6902FA03F376
:1009D8003B613B681A683B691340FB60FA683B69F6
:1009E8009A4265D17B681A687B695B00032101FA2A
:1009F80003F3DB431A407B681A607B681A683B681C
:100A08001B7919467B695B0001FA03F31A437B687B
:100A18001A603B681B79012B03D03B681B79022BBA
:100A28002ED17B689A687B695B00032101FA03F386
:100A3800DB431A407B689A607B689A683B685B79FD
:100A480019467B695B0001FA03F31A437B689A60D5
:100A58007B685A687B699BB2194601238B40DB434C
:100A68001A407B685A607B685B683A6892791146DD
:100A78007A6992B201FA02F292B21A437B685A601A
:100A88007B68DA687B699BB25B00032101FA03F398
:100A9800DB431A407B68DA607B68DA683B68DB799D
:100AA80019467B695B0001FA03F31A437B68DA6035
:100AB8007B6901337B617B690F2B85D900BF1C37AC
:100AC800BD465DF8047B704780B483B000AF7860A2
:100AD8007B684FF6FF721A607B6800221A717B6888
:100AE80000225A717B6800229A717B680022DA71B1
:100AF80000BF0C37BD465DF8047B704780B485B0F5
:100B080000AF78600B467B8013467B700023FB6048
:100B18000023BB607A787B8803F007039B0002FA06
:100B280003F3FB607B88DB089BB218467B88DB08F5
:100B38009BB21A467B68083253F822207B8803F060
:100B480007039B000F2101FA03F3DB4302EA0301C9
:100B58007B6800F1080243F822107B88DB089BB20F
:100B68001A467B68083253F82220FB681343BB609F
:100B78007B88DB089BB21A467B680832B96843F861
:100B8800221000BF1437BD465DF8047B7047000093
:100B980080B489B000AF78600023BB6100237B611B
:100BA8000023FB6102233B610023FB600223BB603F
:100BB800474B9B6803F00C03BB61BB69042B07D050
:100BC800082B09D0002B3DD17B68424A1A603DE0D2
:100BD8007B68414A1A6039E03D4B5B689B0D03F026
:100BE8000103FB603A4B5B6803F03F03BB60FB68A3
:100BF800002B0CD0384ABB68B2FBF3F3344A526876
:100C08009209C2F3080202FB03F3FB610BE0314ACD
:100C1800BB68B2FBF3F32E4A52689209C2F308028A
:100C280002FB03F3FB612A4B5B681B0C03F0030315
:100C380001335B003B61FA693B69B2FBF3F27B6805
:100C48001A6003E07B68234A1A6000BF204B9B6848
:100C580003F0F003BB61BB691B09BB611F4ABB6999
:100C680013441B78DBB27B617B681A687B69DA40C6
:100C78007B685A60164B9B6803F4E053BB61BB6901
:100C88009B0ABB61154ABB6913441B78DBB27B61C5
:100C98007B685A687B69DA407B689A600C4B9B6872
:100CA80003F46043BB61BB695B0BBB610B4ABB6967
:100CB80013441B78DBB27B617B685A687B69DA4036
:100CC8007B68DA6000BF2437BD465DF8047B704757
:100CD800003802400024F40000127A0000000020CE
:100CE80080B483B000AF78600B46FB70FB78002BB4
:100CF80006D00A49094B1A6B7B6813430B6306E05D
:100D08000649064B1A6B7B68DB4313400B6300BF35
:100D18000C37BD465DF8047B704700BF00380240C1
:100D280080B483B000AF78600B46FB70FB78002B73
:100D380006D00A49094B1A6C7B6813430B6406E01A
:100D48000649064B1A6C7B68DB4313400B6400BFF3
:100D58000C37BD465DF8047B704700BF0038024081
:100D680080B483B000AF78600B46FB70FB78002B33
:100D780006D00A49094B5A6C7B6813434B6406E05A
:100D88000649064B5A6C7B68DB4313404B6400BF33
:100D98000C37BD465DF8047B704700BF0038024041
:100DA80080B483B000AF78600B46FB70FB78002BF3
:100DB80006D00A49094B5A6A7B6813434B6206E01E
:100DC8000649064B5A6A7B68DB4313404B6200BFF7
:100DD8000C37BD465DF8047B704700BF0038024001
:100DE80080B485B000AF78600B467B800023FB732E
:100DF8007B681B899AB27B8813409BB2002B02D078
:100E08000123FB7301E00023FB73FB7B18461437B7
:100E1800BD465DF8047B704780B485B000AF78604C
:100E280039600023FB817B681B88FB817B68294A2A
:100E3800934213D07B68284A93420FD07B68B3F162
:100E4800804F0BD07B68254A934207D07B68244AA1
:100E5800934203D07B68234A934208D1FB8923F04D
:100E68007003FB813B685A88FB891343FB817B68CD
:100E78001D4A93420CD07B681C4A934208D0FB89D8
:100E880023F44073FB813B681A89FB891343FB8178
:100E98007B68FA891A803B685A687B68DA623B6823
:100EA8001A887B681A857B680A4A934203D07B6854
:100EB800094A934204D13B689B7A9AB27B681A86A6
:100EC8007B6801229A8200BF1437BD465DF8047B17
:100ED800704700BF000001400004014000040040CA
:100EE80000080040000C00400010004000140040C2
:100EF80080B483B000AF78600B46FB70FB78002BA2
:100F080008D07B681B889BB243F080039AB27B6849
:100F18001A8007E07B681B889BB223F080039AB293
:100F28007B681A8000BF0C37BD465DF8047B7047AC
:100F380080B483B000AF78600B46FB70FB78002B61
:100F480008D07B681B889BB243F001039AB27B6888
:100F58001A8007E07B681B889BB223F001039AB2D2
:100F68007B681A8000BF0C37BD465DF8047B70476C
:100F780080B485B000AF7860396000237B8100239E
:100F8800FB810023BB817B681B8C9BB223F0010390
:100F98009AB27B681A847B681B8CFB817B689B8870
:100FA800BB817B681B8B7B817B8923F070037B81F2
:100FB8007B8923F003037B813B681A887B89134371
:100FC8007B81FB8923F00203FB813B689A89FB89BB
:100FD8001343FB813B685A88FB891343FB817B6879
:100FE8001E4A934203D07B681D4A934223D1FB8952
:100FF80023F00803FB813B68DA89FB891343FB81F3
:10100800FB8923F00403FB813B689A88FB8913431F
:10101800FB81BB8923F48073BB81BB8923F40073F4
:10102800BB813B681A8ABB891343BB813B685A8AD8
:10103800BB891343BB817B68BA899A807B687A89AC
:101048001A833B689A687B685A637B68FA891A84B2
:1010580000BF1437BD465DF8047B704700000140AF
:101068000004014080B485B000AF78603960002387
:101078007B810023FB810023BB817B681B8C9BB297
:1010880023F010039AB27B681A847B681B8CFB815F
:101098007B689B88BB817B681B8B7B817B8923F466
:1010A800E0437B817B8923F440737B813B681B8809
:1010B8001B029AB27B8913437B81FB8923F02003AF
:1010C800FB813B689B891B019AB2FB891343FB8117
:1010D8003B685B881B019AB2FB891343FB817B68E1
:1010E800224A934203D07B68214A93422BD1FB8941
:1010F80023F08003FB813B68DB891B019AB2FB89E3
:101108001343FB81FB8923F04003FB813B689B88E9
:101118001B019AB2FB891343FB81BB8923F48063CB
:10112800BB81BB8923F40063BB813B681B8A9B009E
:101138009AB2BB891343BB813B685B8A9B009AB216
:10114800BB891343BB817B68BA899A807B687A899B
:101158001A833B689A687B689A637B68FA891A8461
:1011680000BF1437BD465DF8047B7047000001409E
:101178000004014080B485B000AF78603960002376
:101188007B810023FB810023BB817B681B8C9BB286
:1011980023F480739AB27B681A847B681B8CFB816A
:1011A8007B689B88BB817B689B8B7B817B8923F0D9
:1011B80070037B817B8923F003037B813B681A885A
:1011C8007B8913437B81FB8923F40073FB813B6894
:1011D8009B891B029AB2FB891343FB813B685B889E
:1011E8001B029AB2FB891343FB817B68224A934214
:1011F80003D07B68214A93422BD1FB8923F40063F7
:10120800FB813B68DB891B029AB2FB891343FB8194
:10121800FB8923F48063FB813B689B881B029AB29D
:10122800FB891343FB81BB8923F48053BB81BB89B2
:1012380023F40053BB813B681B8A1B019AB2BB890C
:101248001343BB813B685B8A1B019AB2BB8913437A
:10125800BB817B68BA899A807B687A899A833B6864
:101268009A687B68DA637B68FA891A8400BF143746
:10127800BD465DF8047B7047000001400004014052
:1012880080B485B000AF786039600023BB8100234B
:101298007B810023FB817B681B8C9BB223F48053EA
:1012A8009AB27B681A847B681B8C7B817B689B88DD
:1012B800FB817B689B8BBB81BB8923F4E043BB81AB
:1012C800BB8923F44073BB813B681B881B029AB21D
:1012D800BB891343BB817B8923F400537B813B6823
:1012E8009B891B039AB27B8913437B813B685B888C
:1012F8001B039AB27B8913437B817B68124A934212
:1013080003D07B68114A93420AD1FB8923F48043B6
:10131800FB813B681B8A9B019AB2FB891343FB81C3
:101328007B68FA899A807B68BA899A833B689A684D
:101338007B681A647B687A891A8400BF1437BD46B3
:101348005DF8047B704700BF0000014000040140C5
:1013580080B485B000AF78600B467B800023FB81AA
:101368007B681B8BFB81FB8923F00803FB81FA89CF
:101378007B881343FB817B68FA891A8300BF143783
:10138800BD465DF8047B704780B485B000AF7860D7
:101398000B467B800023FB817B681B8BFB81FB89D1
:1013A80023F40063FB817B881B029AB2FB891343F9
:1013B800FB817B68FA891A8300BF1437BD465DF844
:1013C800047B704780B485B000AF78600B467B80A3
:1013D8000023FB817B689B8BFB81FB8923F008033F
:1013E800FB81FA897B881343FB817B68FA899A839E
:1013F80000BF1437BD465DF8047B704780B485B0E4
:1014080000AF78600B467B800023FB817B689B8B59
:10141800FB81FB8923F40063FB817B881B029AB262
:10142800FB891343FB817B68FA899A8300BF1437D1
:10143800BD465DF8047B704780B483B000AF786028
:101448000B467B8013467B707B78002B08D07B682B
:101458009B899AB27B8813439AB27B689A8109E088
:101468007B689B899AB27B88DB439BB213409AB214
:101478007B689A8100BF0C37BD465DF8047B7047D6
:1014880080B485B000AF78600B467B800023FB7387
:101498000023BB8100237B817B681B8A9AB27B88EF
:1014A8001340BB817B689B899AB27B8813407B8100
:1014B800BB89002B05D07B89002B02D00123FB734D
:1014C80001E00023FB73FB7B18461437BD465DF82B
:1014D800047B704780B483B000AF78600B467B8094
:1014E8007B88DB439AB27B681A8200BF0C37BD4603
:1014F8005DF8047B7047000080B58AB000AF786063
:10150800396000237B6200233B620023FB610023D8
:10151800BB617B681B8A9BB27B627B6A23F4405366
:101528007B623B68DB881A467B6A13437B627B6A73
:101538009AB27B681A827B689B899BB27B627B6AC2
:1015480023F4B05323F00C037B623B689A883B6812
:101558001B8913439AB23B685B8913439BB21A46B3
:101568007B6A13437B627B6A9AB27B689A817B6849
:101578009B8A9BB27B627B6A23F440737B623B68E5
:101588009B891A467B6A13437B627B6A9AB27B68A3
:101598009A8207F108031846FFF7FAFA7B68304A7F
:1015A800934203D07B682F4A934202D17B693B6206
:1015B80001E03B693B627B689B899BB21BB2002BB5
:1015C8000CDA3A6A13469B0013449A001A443B68A3
:1015D8001B685B00B2FBF3F3FB610BE03A6A13464E
:1015E8009B0013449A001A443B681B689B00B2FB9B
:1015F800F3F3FB61FB691C4AA2FB03235B091B0194
:101608007B627B6A1B09642202FB03F3FA69D31A23
:10161800BB617B689B899BB21BB2002B0CDABB6950
:10162800DB003233104AA2FB03235B0903F00703F4
:101638007A6A13437B620BE0BB691B0132330A4AA7
:10164800A2FB03235B0903F00F037A6A13437B624F
:101658007B6A9AB27B681A8100BF2837BD4680BD75
:1016680000100140001401401F85EB5180B483B085
:1016780000AF78600B46FB70FB78002B08D07B68C6
:101688009B899BB243F400539AB27B689A8107E026
:101698007B689B899BB223F400539AB27B689A813A
:1016A80000BF0C37BD465DF8047B704780B483B03B
:1016B80000AF78607B689B889BB2C3F308039BB23A
:1016C80018460C37BD465DF8047B704780B483B07C
:1016D80000AF78600B467B8013467B707B78002BCD
:1016E80008D07B689B8A9AB27B8813439AB27B683E
:1016F8009A8209E07B689B8A9AB27B88DB439BB21B
:1017080013409AB27B689A8200BF0C37BD465DF8D9
:10171800047B704780B487B000AF78600B467B804D
:1017280013467B7000233B610023FB600023BB60F2
:1017380000237B617B687B617B88DBB25B09DBB262
:101748003B617B8803F01F03FB600122FB6802FA00
:1017580003F3BB603B69012B03D17B690C337B61CD
:1017680009E03B69022B03D17B6910337B6102E0FE
:101778007B6914337B617B78002B06D07B697A699F
:101788001168BA680A431A6006E07B697A691168C9
:10179800BA68D2430A401A6000BF1C37BD465DF8DC
:1017A800047B704780B485B000AF78600B467B80BF
:1017B8000023FB737B681B889AB27B8813409BB21B
:1017C800002B02D00123FB7301E00023FB73FB7B9A
:1017D80018461437BD465DF8047B704780B487B05F
:1017E80000AF78600B467B800023FB6000237B61A1
:1017F8000023BB600023FB747B88DBB25B09DBB290
:10180800BB607B8803F01F037B6101227B6902FABE
:1018180003F37B61BB68012B07D17B689B899BB273
:101828001A467B6913407B6111E0BB68022B07D124
:101838007B681B8A9BB21A467B6913407B6106E072
:101848007B689B8A9BB21A467B6913407B617B88C5
:101858001B0A9BB2FB600122FB6802FA03F3FB60E0
:101868007B681B889BB21A46FB681340FB607B6948
:10187800002B05D0FB68002B02D00123FB7401E08C
:101888000023FB74FB7C18461C37BD465DF8047BBF
:10189800704780B485B000AF78600B467B8000232A
:1018A800FB810023BB817B881B0AFB81FB8901220A
:1018B80002FA03F3BB81BB89DB439AB27B681A80C7
:1018C80000BF1437BD465DF8047B704780B500AF94
:1018D800354B1A68354B1B6819461046FEF7FCFF56
:1018E8000346002B5ED0324B1B68002B4CD000BF48
:1018F8002D4B1B681846FEF7D7FF0346002BF7D180
:10190800294B1A68294B1B6819461046FFF720F81F
:10191800284B1B681A46284B9A60254B1B684FF6C4
:10192800FF72934228BF1346234A13611E4B1B685C
:1019380021491846FEF744FF1B4B1B680121184636
:10194800FEF796FF1B4B1A68194B1B68B3F5803FCF
:1019580003D2174B1B685B0000E0184B1344154A71
:101968001360134B1A68124B1B684FF6FF718B42BA
:1019780028BF0B46D31A0E4A13600B4B1B68012174
:101988001846FEF775FF0DE0074B1B680021184647
:10199800FEF76EFF044B1A68044B1B681946104685
:1019A800FEF7D6FF00BF80BD180000201C000020F5
:1019B800100000205000002090000020FEFF0100D1
:1019C80080B500AFFFF782FF00BF80BD80B500AFD4
:1019D800FFF77CFF00BF80BD80B500AF022105483E
:1019E800FFF7FEF90346002B01D0034B1B6800BF2D
:1019F80080BD00BF003C00401400002080B500AF4F
:101A080000F00EF800F03EF800F070F800F0D6F89C
:101A180000F0EEF800F01EF900F074F900BF80BD88
:101A280080B582B000AF01210820FFF759F94FF4C3
:101A380070433B6002233B7103237B710023BB711E
:101A48000123FB713B4619460D48FEF7AFFF022202
:101A58000C210B48FFF752F802220D210848FFF726
:101A68004DF802220E210648FFF748F802220F21FE
:101A78000348FFF743F800BF0837BD4680BD00BFE5
:101A8800000C024080B584B000AF1C233B730023D8
:101A98007B730123BB730123FB7307F10C03184607
:101AA800FEF78EFB01210120FFF73AF942F2CF033E
:101AB8003B8040F2E7337B6000233B8100237B803F
:101AC8003B4619464FF08040FFF7A6F90122012155
:101AD8004FF08040FFF7B0FC01214FF08040FFF746
:101AE80027FA00BF1037BD4680BD000080B58AB018
:101AF80000AF01210420FFF713F92D4B1B682D4A75
:101B0800A2FB03231B0EFB8440F29923FB61FB8C91
:101B18003B8300233B8400237B8307F1180319468A
:101B28002548FFF779F96023BB800123FB80002358
:101B3800FB6000233B823B1D19461F48FFF718FA3C
:101B480008211D48FFF704FC0123FB800023FB60EC
:101B58003B1D19461848FFF785FA08211648FFF774
:101B680013FC0123FB800023FB603B1D1946124830
:101B7800FFF700FB08211048FFF724FC0123FB8036
:101B88000023FB603B1D19460B48FFF779FB082132
:101B98000948FFF733FC01210748FFF7A9F901219C
:101BA8000548FFF7C5F900BF2837BD4680BD00BF0F
:101BB8002400002029D942660008004080B582B080
:101BC80000AF01210120FFF78BF83B461846FEF7CE
:101BD8007BFF03233B7102233B603B4619460348C6
:101BE800FEF7E4FE00BF0837BD4680BD0000024096
:101BF80080B58AB000AF01214FF48070FFF7B0F8CC
:101C0800FEF740FB07F110031846FEF79FFB002381
:101C18003B6000237B6000233B7500237B7500231A
:101C2800FB6100233B6200233B613B461846FEF7FD
:101C3800ADFB07F1100319460548FEF731FB0121FA
:101C48000348FEF7CBFB00BF2837BD4680BD00BF69
:101C58000020014080B588B000AF01210120FFF7C6
:101C68003FF801211020FFF77BF84FF4C063BB61F8
:101C780002233B7702237B770023BB770123FB7783
:101C880007F1180319461D48FEF790FE072209219F
:101C98001A48FEF733FF07220A211848FEF72EFFDD
:101CA8004FF41653BB600023BB810023FB81002344
:101CB8003B820023BB820C237B8207F10803194671
:101CC8000F48FFF719FC012240F225510C48FFF795
:101CD80021FD25233B7100237B710023BB71012368
:101CE800FB713B1D1846FEF76BFA01210448FFF70C
:101CF800BDFC00BF2037BD4680BD00BF00000240CC
:101D08000010014080B590B000AF01214FF40010E1
:101D1800FEF7E6FF1848FEF77FFC4FF060637B6034
:101D2800164BBB60164BFB6040233B6108237B616D
:101D38000023BB614FF48063FB6100233B620023F7
:101D48007B620023BB624FF40033FB6200233B63DA
:101D580001237B630023BB630023FB633B1D194600
:101D68000548FEF72DFD01210348FEF781FD00BF60
:101D78004037BD4680BD00BF886002400410014066
:101D88002000002080B582B000AF0346FB71F979CE
:101D9800002301220A48FEF73DFB0948FEF704FC30
:101DA80000BF02210648FEF71CFC0346002BF8D0B2
:101DB8000348FEF709FC034618460837BD4680BDB0
:101DC8000020014080B483B000AF78601A4B1B78C4
:101DD800032B27D801A252F823F000BFF51D0008F5
:101DE800031E0008111E00081F1E0008134A7B6806
:101DF8005363124B00221A6417E0104A7B689363FE
:101E08000E4B00225A6310E00C4A7B68D3630B4BDD
:101E180000229A6309E0094A7B681364074B002291
:101E2800DA6302E0044B00221A7000BF0C37BD468B
:101E38005DF8047B704700BF4400002000080040A4
:101E480080B500AFFFF7DAFD044B1B68102202FBD8
:101E580003F31846FFF7B6FFF6E700BF4C00002073
:101E680080B500AF01214FF08040FFF709FB034622
:101E7800002B21D001214FF08040FFF72BFB0F4BA7
:101E88001B78012B11D10E4B1B6801330C4A1360D0
:101E98000B4B1B680A2B08D1094B00221A60094B0F
:101EA8001B780133DAB2074B1A700120FFF76AFF7B
:101EB80003461A46044B1A6000BF80BD2300002069
:101EC80048000020440000204C00002080B582B06B
:101ED80000AF40F225511D48FFF780FC0346002B58
:101EE80030D040F225511948FFF7D3FC1748FFF7C7
:101EF800DDFB0346FB71FB79732B03D1144B0022E6
:101F08001A7005E0FB79722B02D1114B01221A706D
:101F180000BF40210D48FFF745FC0346002BF8D0D1
:101F2800012280210948FFF7D1FB00BF4021074863
:101F3800FFF738FC0346002BF8D000228021034825
:101F4800FFF7C4FB00BF0837BD4680BD0010014045
:101F580023000020DFF834D0002103E00C4B5B584D
:101F6800435004310B480C4B42189A42F6D30B4AA3
:101F780002E0002342F8043B094B9A42F9D300F0EF
:101F880041F800F0F1F8FFF75BFF7047000002200E
:101F9800D821000800000020280000202800002088
:101FA800CC000020FEE780B400AF00BFBD465DF85E
:101FB800047B704780B400AFFEE780B400AFFEE753
:101FC80080B400AFFEE780B400AFFEE780B400AF96
:101FD80000BFBD465DF8047B704780B400AF00BF0A
:101FE800BD465DF8047B704780B400AF00BFBD46B6
:101FF8005DF8047B704780B400AF00BFBD465DF854
:10200800047B704780B500AF164A164BD3F888306A
:1020180043F47003C2F88830134A134B1B6843F02B
:1020280001031360104B00229A600F4A0E4B1B6885
:1020380023F0847323F4803313600B4B0B4A5A60EC
:10204800094A094B1B6823F480231360064B0022BE
:10205800DA6000F00DF8034B4FF000629A6000BFA1
:1020680080BD00BF00ED00E00038024010300024C1
:1020780080B483B000AF00237B6000233B60364A06
:10208800354B1B6843F480331360334B1B6803F4F0
:1020980000333B607B6801337B603B68002B03D1D6
:1020A8007B68B3F5A06FF0D12B4B1B6803F40033AA
:1020B800002B02D001233B6001E000233B603B681A
:1020C800012B42D1244A244B1B6C43F080531364E8
:1020D800224A224B1B6843F4404313601E4A1E4B9E
:1020E8009B6893601C4A1C4B9B6843F400439360B5
:1020F800194A194B9B6843F4A0539360164B184A2E
:102108005A60154A144B1B6843F08073136000BF74
:10211800114B1B6803F00073002BF9D0114B40F2F0
:1021280005621A600C4A0C4B9B6823F0030393600A
:10213800094A094B9B6843F00203936000BF064BB2
:102148009B6803F00C03082BF9D100BF0C37BD4680
:102158005DF8047B704700BF003802400070004003
:1021680008544007003C024070B50D4E0D4CA41BAE
:10217800A4100025A54209D10B4E0C4C00F018F80C
:10218800A41BA4100025A54205D170BD56F8253022
:1021980098470135EEE756F8253098470135F2E7BC
:1021A800D0210008D0210008D0210008D42100083F
:1021B800F8B500BFF8BC08BC9E467047F8B500BF2C
:0821C800F8BC08BC9E467047FC
:0421D000AD01000855
:0421D4008901000875
:1021D80000000000010203040102030406070809C5
:1021E800FFFF000001000000B86002400000002866
:0821F8006F6B0A01007A030A73
:0400000508001F5D73
:00000001FF
